{
  "contractName": "Wallet",
  "abi": [
    {
      "inputs": [],
      "stateMutability": "nonpayable",
      "type": "constructor"
    },
    {
      "inputs": [
        {
          "internalType": "uint256",
          "name": "amount",
          "type": "uint256"
        }
      ],
      "name": "save",
      "outputs": [],
      "stateMutability": "nonpayable",
      "type": "function"
    },
    {
      "inputs": [
        {
          "internalType": "uint256",
          "name": "amount",
          "type": "uint256"
        },
        {
          "internalType": "address",
          "name": "recipient",
          "type": "address"
        }
      ],
      "name": "spend",
      "outputs": [],
      "stateMutability": "nonpayable",
      "type": "function"
    },
    {
      "inputs": [],
      "name": "balance",
      "outputs": [
        {
          "internalType": "uint256",
          "name": "",
          "type": "uint256"
        }
      ],
      "stateMutability": "view",
      "type": "function"
    }
  ],
  "bytecode": "0x6080604052736b175474e89094c44da98b954eedeac495271d0f600160006101000a81548173ffffffffffffffffffffffffffffffffffffffff021916908373ffffffffffffffffffffffffffffffffffffffff16021790555073c2cb1040220768554cf699b0d863a3cd4324ce32600260006101000a81548173ffffffffffffffffffffffffffffffffffffffff021916908373ffffffffffffffffffffffffffffffffffffffff1602179055503480156100ba57600080fd5b50336000806101000a81548173ffffffffffffffffffffffffffffffffffffffff021916908373ffffffffffffffffffffffffffffffffffffffff160217905550610ae08061010a6000396000f3fe608060405234801561001057600080fd5b50600436106100415760003560e01c80631b862027146100465780631e9f59db14610074578063b69ef8a8146100c2575b600080fd5b6100726004803603602081101561005c57600080fd5b81019080803590602001909291905050506100e0565b005b6100c06004803603604081101561008a57600080fd5b8101908080359060200190929190803573ffffffffffffffffffffffffffffffffffffffff169060200190929190505050610390565b005b6100ca61091a565b6040518082815260200191505060405180910390f35b600160009054906101000a900473ffffffffffffffffffffffffffffffffffffffff1673ffffffffffffffffffffffffffffffffffffffff166323b872dd3330846040518463ffffffff1660e01b8152600401808473ffffffffffffffffffffffffffffffffffffffff1673ffffffffffffffffffffffffffffffffffffffff1681526020018373ffffffffffffffffffffffffffffffffffffffff1673ffffffffffffffffffffffffffffffffffffffff1681526020018281526020019350505050602060405180830381600087803b1580156101bd57600080fd5b505af11580156101d1573d6000803e3d6000fd5b505050506040513d60208110156101e757600080fd5b810190808051906020019092919050505050600160009054906101000a900473ffffffffffffffffffffffffffffffffffffffff1673ffffffffffffffffffffffffffffffffffffffff1663095ea7b3600260009054906101000a900473ffffffffffffffffffffffffffffffffffffffff16836040518363ffffffff1660e01b8152600401808373ffffffffffffffffffffffffffffffffffffffff1673ffffffffffffffffffffffffffffffffffffffff16815260200182815260200192505050602060405180830381600087803b1580156102c457600080fd5b505af11580156102d8573d6000803e3d6000fd5b505050506040513d60208110156102ee57600080fd5b810190808051906020019092919050505050600260009054906101000a900473ffffffffffffffffffffffffffffffffffffffff1673ffffffffffffffffffffffffffffffffffffffff1663b6b55f25826040518263ffffffff1660e01b815260040180828152602001915050600060405180830381600087803b15801561037557600080fd5b505af1158015610389573d6000803e3d6000fd5b5050505050565b6000809054906101000a900473ffffffffffffffffffffffffffffffffffffffff1673ffffffffffffffffffffffffffffffffffffffff163373ffffffffffffffffffffffffffffffffffffffff1614610452576040517f08c379a000000000000000000000000000000000000000000000000000000000815260040180806020018281038252600a8152602001807f6f6e6c792061646d696e0000000000000000000000000000000000000000000081525060200191505060405180910390fd5b6000600260009054906101000a900473ffffffffffffffffffffffffffffffffffffffff1673ffffffffffffffffffffffffffffffffffffffff166370a08231306040518263ffffffff1660e01b8152600401808273ffffffffffffffffffffffffffffffffffffffff1673ffffffffffffffffffffffffffffffffffffffff16815260200191505060206040518083038186803b1580156104f357600080fd5b505afa158015610507573d6000803e3d6000fd5b505050506040513d602081101561051d57600080fd5b81019080805190602001909291905050509050600260009054906101000a900473ffffffffffffffffffffffffffffffffffffffff1673ffffffffffffffffffffffffffffffffffffffff16632e1a7d4d826040518263ffffffff1660e01b815260040180828152602001915050600060405180830381600087803b1580156105a557600080fd5b505af11580156105b9573d6000803e3d6000fd5b50505050600160009054906101000a900473ffffffffffffffffffffffffffffffffffffffff1673ffffffffffffffffffffffffffffffffffffffff1663a9059cbb83856040518363ffffffff1660e01b8152600401808373ffffffffffffffffffffffffffffffffffffffff1673ffffffffffffffffffffffffffffffffffffffff16815260200182815260200192505050602060405180830381600087803b15801561066657600080fd5b505af115801561067a573d6000803e3d6000fd5b505050506040513d602081101561069057600080fd5b8101908080519060200190929190505050506000600160009054906101000a900473ffffffffffffffffffffffffffffffffffffffff1673ffffffffffffffffffffffffffffffffffffffff166370a08231306040518263ffffffff1660e01b8152600401808273ffffffffffffffffffffffffffffffffffffffff1673ffffffffffffffffffffffffffffffffffffffff16815260200191505060206040518083038186803b15801561074357600080fd5b505afa158015610757573d6000803e3d6000fd5b505050506040513d602081101561076d57600080fd5b81019080805190602001909291905050509050600160009054906101000a900473ffffffffffffffffffffffffffffffffffffffff1673ffffffffffffffffffffffffffffffffffffffff1663095ea7b3600260009054906101000a900473ffffffffffffffffffffffffffffffffffffffff16836040518363ffffffff1660e01b8152600401808373ffffffffffffffffffffffffffffffffffffffff1673ffffffffffffffffffffffffffffffffffffffff16815260200182815260200192505050602060405180830381600087803b15801561084b57600080fd5b505af115801561085f573d6000803e3d6000fd5b505050506040513d602081101561087557600080fd5b810190808051906020019092919050505050600260009054906101000a900473ffffffffffffffffffffffffffffffffffffffff1673ffffffffffffffffffffffffffffffffffffffff1663b6b55f25826040518263ffffffff1660e01b815260040180828152602001915050600060405180830381600087803b1580156108fc57600080fd5b505af1158015610910573d6000803e3d6000fd5b5050505050505050565b600080600260009054906101000a900473ffffffffffffffffffffffffffffffffffffffff1673ffffffffffffffffffffffffffffffffffffffff166377c7b8fc6040518163ffffffff1660e01b815260040160206040518083038186803b15801561098557600080fd5b505afa158015610999573d6000803e3d6000fd5b505050506040513d60208110156109af57600080fd5b810190808051906020019092919050505090506000600260009054906101000a900473ffffffffffffffffffffffffffffffffffffffff1673ffffffffffffffffffffffffffffffffffffffff166370a08231306040518263ffffffff1660e01b8152600401808273ffffffffffffffffffffffffffffffffffffffff1673ffffffffffffffffffffffffffffffffffffffff16815260200191505060206040518083038186803b158015610a6357600080fd5b505afa158015610a77573d6000803e3d6000fd5b505050506040513d6020811015610a8d57600080fd5b81019080805190602001909291905050509050818102925050509056fea26469706673582212205748868b4b93fb81d1f884ac17ebbcf52e9866583e7971bf8beb23de6bc3367164736f6c63430006000033",
  "source": "pragma solidity ^0.6.0;\nimport '@openzeppelin/contracts/token/ERC20/IERC20.sol';    //imported because we need it to create our contract pointers to DAI and yDAI.\ninterface IYDAI {                                           //imported because we need to interact with the yearn version yDai. We get this info from their github. https://github.com/iearn-finance/itoken/blob/master/contracts/YDAIv3.sol\n function deposit(uint _amount) external;                   //the deposit function signature from yearn allows us to invest tokens into t heir smart contract.\n function withdraw(uint _shares) external;                  //the waithdraw function signature from yearn allows us to remove our tokens from their smart contract.\n function balanceOf(address account)external view returns(uint);  //keeps track of our balance also from yearn finace yDAIv3.sol\n function getPricePerFullShare() external view returns (uint);     \n}\n\ncontract Wallet {\naddress admin;\nIERC20 dai = IERC20(0x6B175474E89094C44Da98b954EedeAC495271d0F);  //activate the IERC20 dai pointer by passing it the dai contract address \nIYDAI yDai = IYDAI(0xC2cB1040220768554cf699b0d863A3cd4324ce32);    //activate the IYDAI yDai pointer by passing it the yDai contract address from the yearn finance registry. \n                                                                    //now we are able to interact with DAI and yDai\nconstructor() public {\n    admin = msg.sender;                                      //makes the admin the only one who can spend tokens\n}\n\nfunction save(uint amount) external {                       //this function is passed an amount to \"save\" which will deposit the amount into the yearn v3 contract.\n    dai.transferFrom(msg.sender, address(this), amount);    //transfers the dai from the msg.sender to our Wallet.sol contract. When you call the save() function, you need to approve your tokens to be spent by the wallet and i think you do that in the 2_deploy_contracts.js.\n    dai.approve(address(yDai), amount);                     //then we send our Dai to the yDai contract. But first we need to approve yDai as a spender. the Dai is in our wallet at this time and yDai will try to use the transferFrom() but it must be approved.\n    yDai.deposit(amount);                                           //now we use the yDai pointer and call the deposit() for this amount. Now the Dai token are inside yDai.sol and earning interest. In return we receive yDai tokens\n\n}\nfunction spend(uint amount, address recipient) external {    //this function is passed an amount to spend/withdraw from the yDai smart contract and the recipient address.\n    require(msg.sender==admin, 'only admin');                  //we must require that the only person who can spend/withdraw our tokens is the admin/msg.sender\n    uint balanceShares = yDai.balanceOf(address(this));        //when we withdraw our Dai we have to remember that the yDai withdraw function expects an amount in yDai. so this function tells us the balance in yDai.\n    yDai.withdraw(balanceShares);                             //yDai.sol only knows the balance of our Wallet.sol address. so this withdraws everything. Now all the Dai are in the wallet so we can spend them.\n    dai.transfer(recipient, amount);                         //here we spend by sending the amount to the recipient address. Any remaining balance will be re invested into yearn.finance\n    uint balanceDai = dai.balanceOf(address(this));           //this is the balance of Dai after we have spent the amount. We will reinvest balanceDai back into the yearn finance contract\n    dai.approve(address(yDai), balanceDai);                     //then we send our Dai to the yDai contract. But first we need to approve yDai as a spender. the Dai is in our wallet at this time and yDai will try to use the transferFrom() but it must be approved.\n    yDai.deposit(balanceDai);\n}\nfunction balance() external view returns(uint) {\n    uint price = yDai.getPricePerFullShare();               //to get the balance of your wallet first you need the price of yDai per full share.\n    uint balanceShares = yDai.balanceOf(address(this));     //you also need to know your personal balance of shares.\n    return balanceShares*price;                             //now you know your total balance in your wallet.sol contract.\n}\n}\n",
  "sourcePath": "/Users/admin/Desktop/GITHUB2021/Defi_wallet_earning_yearnFinance/src/contracts/Wallet.sol",
  "compiler": {
    "name": "solc",
    "version": "0.6.0+commit.26b70077.Emscripten.clang"
  },
  "schemaVersion": "3.2.5",
  "updatedAt": "2020-11-25T22:23:08.763Z",
  "devdoc": {
    "methods": {}
  },
  "userdoc": {
    "methods": {}
  }
}